:1000000000400020C1290000FD290000FD2900005A
:10001000FD290000FD290000FD290000000000006E
:10002000000000000000000000000000FD290000AA
:10003000FD29000000000000FD290000A54200008D
:10004000FD290000FD290000FD290000FD29000018
:10005000FD290000FD2900001D0A0000D109000053
:10006000FD290000B9060000C90600003119000092
:100070003F190000FD290000492300002D17000052
:100080005D170000FD290000FD29000001040000AB
:100090004518000065180000FD290000FD2900003A
:1000A0007517000095170000DD170000FD17000010
:1000B0006926000091260000FD290000FD290000AE
:1000C000FD290000FD290000FD290000FD29000098
:1000D000FD290000FD290000FD290000FD29000088
:1000E0004D1900002D09000045170000C908000047
:1000F000FD290000FD290000FD290000000000008E
:1001000000000000000000000000000000000000EF
:1001100000000000000000000000000000000000DF
:10012000FD290000FD290000FD290000FD29000037
:10013000FD290000FD290000FD290000FD29000027
:10018000FFFFFFFFFFFFFFFFFFFFFFFFFFFFFFFF7F
:1001900003329CA77F000000FFFFFFFFFFFFFFFF70
:1001A00010B5054C237833B9044B13B10448AFF3B1
:1001B00000800123237010BD000C0420000000000B
:1001C00084B4000008B5034B1BB103490348AFF3E7
:1001D000008008BD00000000040C042084B400006E
:1001E000162031A1ABBE30484168002901D0354A04
:1001F00011600168002901D1314901608168C2683C
:10020000002900D08D46002A01D002F5807A002115
:100210008B460F462548264A121A05F0FDFA09F0CA
:1002200041FC15202549ABBE24490968002001B4D2
:100230000B780131002B15D0202BF9D0222B01D0C7
:10024000272B01D11A0001E02022013902B401302C
:100250000B780131002B05D09A42F9D100224B1EB8
:100260001A70E5E76946020092006A446B469A42BA
:1002700006D9043A14681D6815601C600433F6E75B
:100280006C460725AC43A54604000D00094800282C
:1002900002D0094806F0A4FF04F0F8FF200029006E
:1002A00002F066FC04F0E2FF00000420000C0420D1
:1002B0002C190420E171000041810000100104208C
:1002C00000000020880B042080B483B000AF0346F8
:1002D000FB7197F90730002B0BDBFB7903F01F0252
:1002E000064997F907305B09012000FA02F241F84C
:1002F000232000BF0C37BD4680BC704700E100E002
:1003000080B584B000AF0023FB60EFF310837B6007
:100310007B68FB6072B61B4B1B7883F00103DBB27A
:10032000002B26D0174B01221A70174B5B68164A18
:1003300043F001035360154A134B9A601320FFF7F3
:10034000C3FF6FF07843BB600F4ABB6813620E4A6D
:10035000BB68D3620C4ABB6853630B4ABB68D36368
:10036000094ABB689364084ABB68D364064ABB6801
:100370001365FB683B603B6883F3108800BF103750
:10038000BD4680BD00140420000001400010042080
:1003900080B489B000AF0346B9607A60FB73002374
:1003A000FB77164AFB7BDB0013440433BB61BB695C
:1003B000BA681A60BB697A685A60FB7B012202FA4C
:1003C00003F37B61BB68002B08D00C4BD3F8DC2017
:1003D0000A497B691343C1F8DC3008E0074BD3F8C6
:1003E000DC207B69DB4305491340C1F8DC30FB7F2F
:1003F00018462437BD4680BC704700BF0014042057
:1004000080B58AB000AF2C4BDB6CFB612A4B9B6C38
:10041000BB61294B1B6D7B61284BD3F8DC20B9698C
:100420007B690B4313407B627B6A002B37D0202310
:100430003B617B6AB3FA83F33B622CE03A693B6A27
:10044000D31A013BFB600122FB6802FA03F3BB6095
:100450001A4AFB68DB00134404337B607B681B682B
:10046000002B0FD0BA69BB681340002B01D00123C9
:1004700000E002233B607B681B687A6850680022BA
:1004800039689847BB68DB437A6A13407B627B6AB2
:10049000B3FA83F33B623A6A3B699A42CED3064A87
:1004A000BB699364044A7B691365034AFB69D3649F
:1004B00000BF2837BD4680BD000001400014042065
:1004C00080B483B000AF0346FB7197F90730002B6F
:1004D0000BDBFB7903F01F02064997F907305B0934
:1004E000012000FA02F241F8232000BF0C37BD467C
:1004F00080BC704700E100E080B584B000AF786058
:100500003960144BDB68002B1ED1124A7B68D36024
:100510000023FB600FE00F4BDB68FA68002143F813
:1005200032100C4BDA68FB68DB00134400225A607F
:10053000FB680133FB60FB68012BECD90920FFF756
:10054000BFFF0A20FFF7BCFF002318461037BD4647
:1005500080BD00BF1801042080B487B000AF0346FF
:10056000FB710B46BB801346BB7100237B61FB799B
:10057000154A52F823303B61EFF31083FB60FB68B0
:100580007B6172B6BB79002B08D03B699B889AB21D
:10059000BB8813439AB23B699A8009E03B699B8808
:1005A0009AB2BB88DB439BB213409AB23B699A80F4
:1005B0007B69BB60BB6883F31088002318461C3737
:1005C000BD4680BC704700BF1801042080B485B0D0
:1005D00000AF03460A46FB711346BB80FB79064A0F
:1005E00052F82330FB60FB68BA881A830023184650
:1005F0001437BD4680BC70471801042080B485B014
:1006000000AF03460A46FB711346BB80FB79064ADE
:1006100052F82330FB60FB68BA889A83002318469F
:100620001437BD4680BC70471801042080B586B0E1
:1006300000AF03460A46FB711346BB711D4BDA68D7
:10064000FB79DB0013443B610023FB752BE0FB7D52
:10065000184A52F82330FB6097F90630092B03D172
:10066000FB681B8DBB8202E0FB689B8DBB82FB6835
:100670001B8E9AB2BB8A13409BB27B817A89FB683E
:100680001A863B691B68002B0AD07B89002B07D098
:100690003B691B683A695068F97D07F10A0298477F
:1006A000FB7D0133FB75FB7D022BD0D900BF1837D2
:1006B000BD4680BD1801042080B500AF092100208F
:1006C000FFF7B4FF00BF80BD80B500AF0A21012055
:1006D000FFF7ACFF00BF80BD80B483B000AF03461E
:1006E000FB7197F90730002B0BDBFB7903F01F023E
:1006F000064997F907305B09012000FA02F241F838
:10070000232000BF0C37BD4680BC704700E100E0ED
:1007100080B500AF284B4CF61432DA60264B02222B
:100720001A61264B00221A60234B4CF61432DA6011
:10073000214B1B69204A43F00203136100BF1E4B8B
:100740001B6903F40073002BF9D01D4B1B681C4A76
:1007500023F0030313601A4B00221A60184B194A46
:100760005A60174B46F61A02DA60154B1F225A617F
:10077000154B00221A60144B00229A60124B002283
:100780005A640D4B4CF61432DA600B4B1B690A4A63
:1007900023F0040313610620FFF79EFF0720FFF7F5
:1007A0009BFF2920FFF798FF2B20FFF795FF02F012
:1007B00029F90023184680BD00C10440E01404203C
:1007C00000C304400404100000C0044080B584B09D
:1007D00000AF03463960FB7102F014F9134B1B683C
:1007E000BB60FB79002B07D0012B0CD1104B5B6851
:1007F00003F03F03FB6008E00D4B5B681B0A03F04E
:100800003F03FB6001E004230BE0FB68002B01D1F8
:100810000123FB60BA68FB68B2FBF3F23B681A6025
:10082000002318461037BD4680BD00BF04150420C4
:1008300000C3044080B588B000AF03460A46FB7190
:100840001346BB8000237B61FB79012B04D0022B74
:100850000ED0002B05D012E03F23FB61BB88BB61AB
:100860000FE04FF47C53FB61BB881B02BB6108E0C7
:100870004FF47F03FB61BB881B04BB6101E00423D1
:100880001CE0EFF31083BB60BB687B6172B60D4B5D
:100890005B683B61FB69DB433A6913403B613A6942
:1008A000BB6913433B61074A3B6953607B69FB604B
:1008B000FB6883F3108802F0A5F800231846203760
:1008C000BD4680BD00C3044080B582B000AF144B6C
:1008D0009B6903F006037B60124B1B68002B18D04A
:1008E0007B6803F00403002B07D00E4B1B680E4AF5
:1008F00010680022082198470BE07B6803F0020390
:10090000002B06D0074B1B68074A106800220721FE
:100910009847034A7B68936100BF0837BD4680BD96
:1009200000C30440E0140420E414042080B582B025
:1009300000AF244B9B6903F4CC433B6000237B60F6
:10094000214B1B68002B33D03B68002B30D03B6819
:1009500003F48043002B04D07B6843F004037B60E6
:100960001CE03B6803F40053002B04D07B6843F089
:1009700003037B6012E03B6803F40073002B04D098
:100980007B6843F005037B6008E03B6803F4806309
:10099000002B03D07B6843F006037B607B68002B51
:1009A00006D0094B1B68094A1068002279689847ED
:1009B0003B68002B02D0034A3B68936100BF0837B5
:1009C000BD4680BD00C30440E0140420E4140420AC
:1009D00080B582B000AF0E4B5B687B607B6803F034
:1009E0000103002B10D00B4B1B68002B06D0094BCA
:1009F0001B68094A1068002279689847044B5B68B5
:100A0000034A43F00103536000BF0837BD4680BD71
:100A100000C00440E0140420E414042080B582B037
:100A200000AF154B5B687B60144B1B68002B17D025
:100A30007B6803F00403002B06D0104B1B68104AA0
:100A400010680022002198477B6803F00203002B06
:100A500006D00A4B1B680A4A1068002201219847F9
:100A6000054B5A687B6803F00603034913434B6048
:100A700000BF0837BD4680BD00C00440E01404201C
:100A8000E414042080B48FB000AF03463960FB71DA
:100A90001346BB7100237B6300233B630023FB628F
:100AA0003B68002B05D17B6B43F002037B63404B1B
:100AB0003B60FB79032B1CD801A252F823F000BF46
:100AC000D50A0000D10A0000DF0A0000E90A000090
:100AD000002367E03B6B43F006033B630BE07B6B5B
:100AE00043F004037B6306E07B6B43F006037B6308
:100AF00001E0062356E0EFF31083BB61BB69FB62A4
:100B000072B62C4B44F65902DA602A4B9B6823F0EC
:100B10000302FB79274913438B60274B1A697B6BD0
:100B20001A433B6BDB43244913400B61EFF3118302
:100B3000FB61FB69BB62214B1B89FB84BB795B01B9
:100B40003B623B6A83F311880DE0BFF34F8F30BFE8
:100B5000FB6A3B613B6983F31088EFF310837B6191
:100B60007B69FB6272B63B681B68002BEDD03B686B
:100B70001B685A1E3B681A60BB6ABB60BB6883F384
:100B800011880E4AFB8C13810B4B1B690A4A23F018
:100B900002031361BFF34F8FFB6AFB60FB6883F3B3
:100BA0001088002318463C37BD4680BC704700BF04
:100BB000E814042000C0044000ED00E0002C0040D8
:100BC00080B487B000AF786000237B617B68002B26
:100BD00014D1104B7B60EFF31083FB60FB687B61EB
:100BE00072B60D4B1B690C4A23F002031361BFF36D
:100BF0004F8F7B693B613B6983F310887B681B687F
:100C00005A1C7B681A60002318461C37BD4680BCFE
:100C1000704700BFE814042000ED00E080B483B00A
:100C200000AF0346FB7197F90730002B0BDBFB7914
:100C300003F01F02064997F907305B09012000FA0B
:100C400002F241F8232000BF0C37BD4680BC70473C
:100C500000E100E080B483B000AF0346FB7197F978
:100C60000730002B10DBFB7903F01F02094997F9CD
:100C700007305B09012000FA02F2203341F82320FB
:100C8000BFF34F8FBFF36F8F00BF0C37BD4680BCE3
:100C9000704700BF00E100E080B586B000AFF860AB
:100CA000B9607A603B60BB687B617A680021B86894
:100CB00004F0B2FDFA6813469B0013449B002D4AD2
:100CC0001A447B695A602B49FA6813469B00134407
:100CD0009B000B441033BA681A602649FA68134621
:100CE0009B0013449B000B4408331A687B691A600D
:100CF0007B6900229A62FB689B001F4A13443B6198
:100D00007B691B683A6912881A827B691B683A6999
:100D100052889A813B687A691A607B691B681B8AD2
:100D20009AB27B691B6842F0010292B21A82FFF705
:100D3000E7FA7B695B685B88DBB27A690F49184622
:100D4000FFF726FB0346002B01D00E230EE07B6944
:100D50005B68DB88DBB27A6909491846FFF718FB44
:100D60000346002B01D00E2300E00023184618375D
:100D7000BD4680BD2801042080A00000B9160000F7
:100D80004716000080B485B000AF78600B46FB705A
:100D90007B681B689B8AFB81FB8923F00703FB812F
:100DA000FB781BB203F007031AB2B7F90E301343F6
:100DB0001BB2FB817B681B68FA899A820023184664
:100DC0001437BD4680BC704780B483B000AF7860F4
:100DD0000B46FB70FB78002B0AD07B681B681B8AD4
:100DE0009AB27B681B6842F4006292B21A8209E0F0
:100DF0007B681B681B8A9AB27B681B6822F40062BE
:100E000092B21A82002318460C37BD4680BC704748
:100E100080B584B000AF7860396007F108031946E7
:100E20000020FFF7D3FC0346002B01D003231BE077
:100E30003B685A00BB689A4201D90C2314E0BA6897
:100E40003B68B2FBF3F35B089BB2013BFB81FA8981
:100E5000FB8903F03F039A4201D0072304E07B683B
:100E60001B68FA899A81002318461037BD4680BD59
:100E700080B483B000AF78600B46FB70FB78002B2A
:100E80000AD07B681B681B8A9AB27B681B6842F099
:100E9000080292B21A8209E07B681B681B8A9AB228
:100EA0007B681B6822F0080292B21A82002318465F
:100EB0000C37BD4680BC704780B483B000AF78600B
:100EC0000B46FB707B68FA7883F8262000231846CF
:100ED0000C37BD4680BC704780B483B000AF7860EB
:100EE0000B46FB70FB78002B0AD07B681B681B8AC3
:100EF0009AB27B681B6842F0040292B21A8209E03F
:100F00007B681B681B8A9AB27B681B6822F004020C
:100F100092B21A82002318460C37BD4680BC704737
:100F200080B584B000AF786039607B68012283F8B7
:100F300025203968786800F014F80346FB737B6855
:100F4000002283F82520FB7B002B05D17B681B69E1
:100F5000002B01D00F23FB73FB7B18461037BD46D7
:100F600080BD80B584B000AF7860396000237B73AA
:100F70003B681A687B685A613B685A687B689A616B
:100F80003B681A897B689A833B685A897B68DA8355
:100F90003B681A7B7B6883F820203B685A7B7B6820
:100FA00083F821203B689A7B7B6883F823203B6889
:100FB000DA7B7B6883F824207B68002283F8222078
:100FC0007B6800221A617B681B681B8A9AB27B6867
:100FD0001B6822F4415292B21A827B6893F8233044
:100FE000002B19D07B68DB8B002B0AD07B681B6839
:100FF0009B8A9AB27B681B6822F4005292B29A8252
:1010000035E07B681B689B8A9AB27B681B6842F458
:10101000005292B29A822AE04FF40053FB817B681F
:101020009B8B002B03D0FB8943F40073FB817B680F
:10103000DB8B002B03D0FB8943F48063FB817B684F
:101040001B689B8A99B27B681B68FA890A4392B233
:101050009A827B68DB8B002B09D17B681B681B8A1B
:101060009AB27B681B6842F0400292B21A827B6897
:101070001B681B889BB27B817B681B687A8992B254
:101080001A807B681B681B8A9AB27B681B6842F0D7
:10109000020292B21A827B6893F826207B681B6852
:1010A00092B21A863968786800F018F87B6893F86D
:1010B0002530002B0DD07B682833002219460020F4
:1010C000FFF7E0FC03463B733B7B002B01D00D2375
:1010D00000E07B7B18461037BD4680BD80B588B0E8
:1010E00000AF786039607B6893F82330002B0CD018
:1010F0007B6893F82430002B07D03B685B89012B79
:1011000003D17B68002283F823207B681B681B8A3D
:101110009AB27B681B6842F4405292B21A827B6892
:101120001B681B8A9AB27B681B6822F4405292B2F9
:101130001A827B681B689B8B9AB27B681B6822F0C3
:10114000070292B29A830023BB837B6893F8233013
:10115000002B00F0B9800123BB833B681B897B8394
:101160007B8B002B55D07B685B685B88FB827B6840
:101170005B681B885BB21846FFF750FDFB8A9A4AF2
:10118000012101FA03F3C2F81438FB8A964A0121BF
:1011900001FA03F39362FB8A934A012101FA03F3F4
:1011A0005362FB8A904A012101FA03F353637B8B5C
:1011B00003F00103002B02D07B8B01337B833B6860
:1011C0001A687B8B023BD118884B1A68FB8A1B017B
:1011D00013440A461A607B681B6803F10801834BBD
:1011E0001A68FB8A1B0113440A465A607B8B5B0812
:1011F0009BB2013B1B017D4A1168FA8A12010A4425
:1012000043F0454343F001039360BB8B43F002037B
:10121000BB833B685B897B837B8B002B54D07B68D3
:101220005B68DB88BB827B685B689B885BB2184627
:10123000FFF7F4FCBB8A6C4A012101FA03F3C2F800
:101240001C38BB8A684A012101FA03F39362BB8A06
:10125000654A012101FA03F35362BB8A624A012104
:1012600001FA03F353637B8B03F00103002B02D0DD
:101270007B8B01337B837B681B68191D5B4B1A6872
:10128000BB8A1B0113440A461A603B685A687B8B71
:10129000023BD118554B1A68BB8A1B0113440A46FE
:1012A0005A607B8B5B089BB2013B1B014F4A116864
:1012B000BA8A12010A4443F09A4343F0010393604F
:1012C000BB8B43F00403BB837B681B6800229A84BA
:1012D0007B6893F82430002B2DD07B689B8B013BDF
:1012E0003B617B681B689B8C9AB27B681B6822F011
:1012F000F00292B29A847B681B689B8C9AB23B691D
:101300009BB29B009BB213439AB27B681B6842F06E
:10131000010292B29A847B681B681B8A9AB27B682E
:101320001B6842F4006292B21A827B681B687A687A
:10133000D28B1A8328E07B68DB8B002B0AD17B6879
:101340001B681B8A9AB27B681B6842F4805292B277
:101350001A820DE07B689B8B002B09D17B681B6890
:101360001B8A9AB27B681B6842F4005292B21A82BE
:101370007B689A8B7B68DB8B934238BF1346FB8379
:101380007B681B68FA8B1A837B6893F8233083F0A1
:101390000103DBB2002B2BD07B685B69002B55D09F
:1013A0000023FB8317E07B685B691A787B681B6806
:1013B00092B21A817B685B697A6892F820201A449D
:1013C0007B685A617B689B8B013B9AB27B689A83EE
:1013D000FB8B0133FB83FB8B072B37D87B689B8B05
:1013E000002BE0D132E000BF000001407CA00000F3
:1013F0007B681B689B8B99B27B681B68BA8B0A431E
:1014000092B29A837B6893F82330002B1ED03B68FE
:101410001B89002B1AD000233B8312E07B681B68DA
:101420001B8C9BB27B817B899BB203F00F039BB229
:10143000C3F10803FB81FB89002B06D13B8B0133F1
:101440003B833B8B632BE9D900E000BF7B681B68C3
:101450001B8A9BB203F04003402B03D07B681B68C0
:101460009B88BB817B685B6893F90C301846FFF75B
:10147000D5FB00BF2037BD4680BD00BF80B586B01C
:1014800000AF78600023FB747B681B681B883B827D
:101490007B681B683A8A1A807B681B681B8CFB81FF
:1014A0003B8A03F090039BB2002B1AD03B8A03F0D7
:1014B00010039BB2002B05D07B681B6943F001022F
:1014C0007B681A613B8A03F080039BB2002B05D036
:1014D0007B681B6943F002027B681A610123FB747D
:1014E00059E0FB8903F00F039BB2C3F10803FB82B1
:1014F000FB891B0A9BB203F00F03BB8217E07B68DA
:101500005B691A787B681B6892B21A817B685B6999
:101510007A6892F820201A447B685A617B689B8B1A
:10152000013B9AB27B689A83FB8A013BFB82FB8A70
:10153000002B03D07B689B8B002BE0D17B6893F85A
:10154000243083F00103DBB2002B1DD17B689B8B21
:10155000002B20D118E07B681B689B889AB27B68BF
:101560009B69D2B21A707B689B697A6892F82120D5
:101570001A447B689A617B68DB8B013B9AB27B687B
:10158000DA83BB8A013BBB82BB8A002B03D07B681A
:10159000DB8B002BDFD17B68DB8B002B1DD17B68C5
:1015A0009B8B002B19D17B681B681B8A9BB203F0B5
:1015B0000203022B0FD13B8A03F00203002B07D159
:1015C0007B681B681B889BB203F00203022B04D1CB
:1015D0000123FB7401E00123FB74FB7C002B2ED064
:1015E0007B681B689B8A9AB27B681B6822F418523E
:1015F00092B29A827B68012283F822207B685B6822
:1016000093F90C301846FFF725FB7B681B681B8895
:101610003B827B681B683A8A1A807B689B68002B38
:1016200008D07B689B687A68D0687A681169002264
:10163000984704E07B6828331846FFF7C1FA00BFDB
:101640001837BD4680BD80B586B000AFF860B96080
:101650007A60FB687B61BB68012B02D0022B07D04C
:101660000DE07B691B6943F004027B691A610DE0A0
:101670007B691B6943F010027B691A6106E07B6994
:101680001B6943F040027B691A6100BF7B699B685C
:10169000002B08D07B699B687A69D0687A691169E8
:1016A0000022984704E07B6928331846FFF788FA40
:1016B00000BF1837BD4680BD80B586B000AFF8606A
:1016C000B9607A607B687B61BB68012B02D0022B1A
:1016D00007D00DE07B691B6943F008027B691A6142
:1016E0000DE07B691B6943F020027B691A6106E00B
:1016F0007B691B6943F080027B691A6100BF7B69CB
:101700009B68002B08D07B699B687A69D0687A69EE
:1017100011690022984704E07B6928331846FFF7D7
:101720004FFA00BF1837BD4680BD000080B500AF3E
:10173000034B1B691846FFF7A1FE00BF80BD00BF29
:101740002801042080B500AF034B5B6A1846FFF701
:1017500095FE00BF80BD00BF2801042080B500AF0A
:10176000034B9B6B1846FFF789FE00BF80BD00BF8F
:101770002801042080B483B000AF054B1B697B6057
:101780007B6800229A8300BF0C37BD4680BC70473F
:101790002801042080B483B000AF0F4B1B697B602D
:1017A0007B680022DA837B681B689B8B9AB27B681C
:1017B0001B6822F0070292B29A837B681B689B8A9F
:1017C0009AB27B681B6842F4005292B29A8200BFC0
:1017D0000C37BD4680BC70472801042080B483B01C
:1017E00000AF054B5B6A7B607B6800229A8300BF79
:1017F0000C37BD4680BC70472801042080B483B0FC
:1018000000AF0F4B5B6A7B607B680022DA837B68EA
:101810001B689B8B9AB27B681B6822F0070292B20E
:101820009A837B681B689B8A9AB27B681B6842F428
:10183000005292B29A8200BF0C37BD4680BC7047FE
:101840002801042080B483B000AF054B9B6B7B6004
:101850007B6800229A8300BF0C37BD4680BC70476E
:101860002801042080B483B000AF0F4B9B6B7B60DA
:101870007B680022DA837B681B689B8B9AB27B684B
:101880001B6822F0070292B29A837B681B689B8ACE
:101890009AB27B681B6842F4005292B29A8200BFEF
:1018A0000C37BD4680BC70472801042080B584B049
:1018B00000AF0346FB71FB791A4A52F823309B8B29
:1018C000FB81FB79184A52F82330002B1FD0FB898B
:1018D00003F00103002B0AD0FB79134A52F823309E
:1018E000FA79124951F82200002201219847FB8918
:1018F00003F00203002B0AD0FB790B4A52F8233085
:10190000FA790A4951F82200002202219847FB790E
:10191000044A52F8233003229A8100BF1037BD4693
:1019200080BD00BF64010420EC140420F8140420DE
:1019300080B500AF0020FFF7B9FF00BF80BD80B5C4
:1019400000AF0120FFF7B2FF00BF80BD80B500AF40
:101950000220FFF7ABFF00BF80BD000080B483B062
:1019600000AF0346FB7197F90730002B0BDBFB79C7
:1019700003F01F02064997F907305B09012000FABE
:1019800002F241F8232000BF0C37BD4680BC7047EF
:1019900000E100E080B483B000AF0346FB7197F92B
:1019A0000730002B10DBFB7903F01F02094997F980
:1019B00007305B09012000FA02F2203341F82320AE
:1019C000BFF34F8FBFF36F8F00BF0C37BD4680BC96
:1019D000704700BF00E100E080B483B000AF034671
:1019E000FB7197F90730002B0CDBFB7903F01F022A
:1019F000074997F907305B09012000FA02F26033CA
:101A000041F8232000BF0C37BD4680BC704700BFA3
:101A100000E100E080B588B000AFF860B9607A609E
:101A2000FB68BB61BB695B6ADB6A1B697B61002386
:101A3000FB61BB68012B02D0022B05D009E0FB69DA
:101A400043F48073FB6109E0FB6943F48063FB614D
:101A500004E0FB6943F48053FB6100BF7B691B68B2
:101A6000002B13D07B695B7B002B0FD0BB699A697D
:101A7000FB691A43BB699A617B6900221A73BB69CF
:101A80005B6A00221946B86900F0B9FEBB699A6921
:101A9000FB691A43BB699A61BB695B6A00221946FC
:101AA000B86900F0ACFE00BF2037BD4680BD80B5F0
:101AB00088B000AFF860B9607A60FB68BB61BB6951
:101AC0001B6ADB6A1B697B610023FB61BB68012B1E
:101AD00002D0022B05D009E0FB6943F40073FB61DF
:101AE00009E0FB6943F40063FB6104E0FB6943F434
:101AF0000053FB6100BF7B691B68002B13D07B691F
:101B00005B7B002B0FD0BB699A69FB691A43BB69E9
:101B10009A617B6900221A73BB691B6A012219460C
:101B2000B86900F06CFEBB699A69FB691A43BB692E
:101B30009A61BB691B6A01221946B86900F05FFE11
:101B400000BF2037BD4680BD80B586B000AFF860CD
:101B50007A603B600B46FB720023FB823B6A0022EB
:101B60001A607B683B613A680021786803F054FE94
:101B7000FB681B016E4A1A443B695A606C4AFB6859
:101B80001B01134408331A683B699A603B69FA7A6F
:101B90001A707B6830337B60FEF7B2FBFB7A012B57
:101BA0003CD03B697A681A623B691B6A002283F861
:101BB00034203B691A6A3B691B6A9A623B691A6A5C
:101BC0003B691B6A1A633B691A6A3B691B6ADA62E2
:101BD0003B691B6A0022DA633B691B6A554A9A63B8
:101BE0003B691A6A3B691B6A14321A613B691A6ABB
:101BF0003B691B6A5A623B695B681B783A694E49CC
:101C00001846FEF7C5FB0346002B04D0386900F0E8
:101C10009BF80F2387E07B6840337B60FB7A002BC7
:101C200039D03B697A685A623B695B6A002283F863
:101C300034203B695A6A3B695B6A9A623B695A6A1B
:101C40003B695B6A1A633B695A6A3B695B6ADA62A1
:101C50003B695B6A0022DA633B695B6A374A9A63D5
:101C60003B695A6A3B695B6A14321A613B695A6A7A
:101C70003B695B6A5A623B695B685B783A693049E9
:101C80001846FEF785FB0346002B04D0386900F0A8
:101C90005BF80F2347E0F968386900F059FE3B69AB
:101CA0009B681B8C9BB203F00103002B14BF012324
:101CB0000023DAB23B6983F82D203B699B681B8CBB
:101CC0009BB29B119BB203F00303FB82FB8A1D4A6C
:101CD000D25C3B6983F82E203B6A3A691A60144A49
:101CE000FB681B0113440C333A691A603B695B685B
:101CF00093F904301846FFF76FFE3B695B6893F970
:101D000004301846FFF72AFE3B695B6893F90230FE
:101D10001846FFF723FE3B695B6893F903301846CA
:101D2000FFF71CFE002318461837BD4680BD00BFD4
:101D300070010420151E0000AF1A00007D1F000076
:101D4000151A00009CA0000080B582B000AF78603A
:101D50007B689B6800229A807B685B6893F90330FC
:101D60001846FFF717FE7B685B6893F90230184648
:101D7000FFF710FE7B685B6893F904301846FFF7A5
:101D800009FE7B685B680022DA600023184608378A
:101D9000BD4680BD80B584B000AFF860B9607A60A0
:101DA000FB70FB681B6A9B6ABA681A60FB681B6A57
:101DB0009B6A7A685A60FB681B6A9B6A00229A6079
:101DC000FB681B6A9B6A01221A73FB681B6A9B6A89
:101DD000FA785A73FB681B6A9A6AFB681B6A126975
:101DE0009A62FB681B6A93F83430002B0DD1FB68B4
:101DF0001B6A022283F83420FB681B6A9B6BFA681B
:101E0000126AD26A1146F8689847002318461037BC
:101E1000BD4680BD80B483B000AF786039603B6858
:101E20005B7B002B56D07B685B681B781946314A78
:101E300001238B40C2F814387B685B681B78194615
:101E40002C4A01238B4093627B685B681B781946A0
:101E5000284A01238B4053627B685B681B781946D4
:101E6000244A01238B4053633B681B681A463B6836
:101E70005B681A44204B19687B685B681B781B0100
:101E80000B44013A1A607B689B6819461A4B1A6822
:101E90007B685B681B781B0113440A465A603B68E9
:101EA0005B68013B1B01144A11687A68526812781A
:101EB00012010A4443F0404343F0010393607B68FE
:101EC0009B689B889AB27B689B6842F0100292B232
:101ED0009A8009E07B689B689B889AB27B689B68C4
:101EE00042F0020292B29A8000BF0C37BD4680BC1D
:101EF000704700BF000001407CA0000080B584B0A6
:101F000000AFF860B9607A60FB70FB685B6A9B6A3F
:101F1000BA681A60FB685B6A9B6A7A685A60FB68F9
:101F20005B6A9B6A00229A60FB685B6A9B6A01227B
:101F30001A73FB685B6A9B6AFA785A73FB685B6A80
:101F40009A6AFB685B6A12699A62FB685B6A93F83B
:101F50003430002B0DD1FB685B6A022283F83420F9
:101F6000FB685B6A9B6BFA68526AD26A1146F86832
:101F70009847002318461037BD4680BD80B483B013
:101F800000AF786039603B685B7B002B56D07B6884
:101F90005B685B781946314A01238B40C2F81C38D4
:101FA0007B685B685B7819462C4A01238B409362FF
:101FB0007B685B685B781946284A01238B40536233
:101FC0007B685B685B781946244A01238B40536326
:101FD0007B689B681946224B1A687B685B685B7854
:101FE0001B0113440A461A603B681B681A463B688B
:101FF0005B681A441A4B19687B685B685B781B0145
:102000000B44013A5A603B685B68013B1B01144A70
:1020100011687A685268527812010A4443F04063AA
:1020200043F0010393607B689B689B889AB27B684E
:102030009B6842F0200292B29A8009E07B689B681C
:102040009B889AB27B689B6842F0010292B29A80A8
:1020500000BF0C37BD4680BC704700BF0000014088
:102060007CA0000080B584B000AFF860B9607A60F1
:10207000FB68596A7B68BA68F86800F005F803469F
:1020800018461037BD4680BD80B586B000AFF860F9
:10209000B9607A603B607B6800221A60BB683C33A1
:1020A000002219460020FEF7EDFC0346FB75FB7D80
:1020B000002B01D0012324E0BB681B6B1A687B68EE
:1020C0001A60BB681B6B00221A60BB681B6B1A6925
:1020D000BB681A63BB681B6B1B68002B03D1BB6812
:1020E000002283F83420FB689B69002B08D0FB6832
:1020F0009A693B681A60FB6800229A610D2300E030
:10210000002318461837BD4680BD80B584B000AFA7
:10211000F860B9607A60FB70FB681B6A012283F883
:102120003420FB681B6A9B6ABA681A60FB681B6AEA
:102130009B6A7A685A60FB681B6A9B6A00229A60F5
:10214000FB681B6A9B6A01221A73FB681B6A9B6A05
:10215000FA785A73FB681B6A9A6AFB681B6A1269F1
:102160009A62FB681B6A9B6BFA68126AD26A114614
:10217000F8689847FB681B6ABA691946F86800F066
:1021800005F8034618461037BD4680BD80B586B0B9
:1021900000AFF860B9607A60BB683C330022194632
:1021A0000020FEF76FFC0346FB75FB7D002B01D082
:1021B00001231FE0BB681B6B00221A60BB681B6B0E
:1021C0001A69BB681A63BB681B6B1B68002B03D1C1
:1021D000BB68002283F83420FB689B69002B08D081
:1021E000FB689A697B681A60FB6800229A610D237C
:1021F00000E0002318461837BD4680BD80B483B088
:1022000000AF786039603B6800221A707B681B6AF7
:102210001B6B1B68002B0BD07B681B6A1B6B1B7B2B
:1022200083F00103DBB2002B02D03B6801221A705D
:10223000002318460C37BD4680BC704780B483B07D
:1022400000AF786039603B6800221A707B685B6A77
:102250001B6B1B68002B0BD07B685B6A1B6B1B7BAB
:1022600083F00103DBB2002B02D03B6801221A701D
:10227000002318460C37BD4680BC704780B485B03B
:1022800000AFF860B9607A60FB68BA68DA60FB6832
:102290007A681A61002318461437BD4680BC70471F
:1022A00080B485B000AF7860084611461A460346F0
:1022B000FB700B46BB7013467B707B689B689B89E9
:1022C0009BB223F00F03FB817A78BB781343DAB219
:1022D000FB781343DBB29AB2FB891343FB817B6823
:1022E0009B68FA899A81002318461437BD4680BC42
:1022F000704780B485B000AFF860084611461A46B2
:1023000003467B810B467B721346FB80FB689B6810
:102310007A891A857B7A9BB2DB029AB2FB881343D7
:102320009BB2FA6892686FEA43436FEA53439BB2E9
:102330009384FB689B683A7E92B29A850023184684
:102340001437BD4680BC704780B582B000AF054BE6
:10235000DB687B60786800F007F800BF0837BD468F
:1023600080BD00BF7001042080B58EB002AF7860E0
:102370007B689B681B899BB203F00E030C2B00F259
:102380006C8101A252F823F07D2400005B2600003E
:10239000BD2300005B260000D92300005B2600005F
:1023A000E92300005B2600005B2600005B2600009E
:1023B0005B2600005B260000C5230000786800F063
:1023C000E1F94DE17B689B689B8E9BB2DBB21946BD
:1023D000786800F071F943E17B6893F82E30194674
:1023E000786800F069F93BE10023FB627B689B6839
:1023F0009B8ABB83BB8B03F010039BB2002B05D0E1
:102400007B689B681B888023FB6209E0BB8B03F021
:1024100008039BB2002B03D0FB6A43F01003FB625E
:10242000BB8B03F004039BB2002B03D0FB6A43F089
:102430002003FB62BB8B03F002039BB2002B03D093
:10244000FB6A43F04003FB62FB6A002B00F007814C
:102450007B681B7D83F00103DBB2002B00F0FF8063
:102460007B689A69FB6A1A437B689A617B685B6A3E
:1024700004221946786800F0C2F9F0E00023BB623C
:102480007B689B68B3F844309BB203F00F037B83F7
:102490007B689B68B3F840309BB203F001033B8339
:1024A0007B8B002B00F0C9803B8B002B00F0C5809C
:1024B00007F10C0319460020FEF788F90346002BAC
:1024C00001D00023FB607B689B68B3F848309BB267
:1024D0001B037B617B689B68B3F844309BB21B098C
:1024E0009BB21A467B6913437B617B8B03F001032C
:1024F000002B6FD07B689B689B8C9BB203F40043DE
:10250000B3F5004F4DD1002387F827304FF4006317
:102510003B610123FB837B693F2B06D87B695B0210
:10252000DA083B69D31A3B6228E07B697F2B09D824
:102530007B691B02DA083B69D31A3B62012387F8E7
:1025400027301BE07B69FF2B09D87B69DB01DA08A8
:102550003B69D31A3B62022387F827300EE07B6980
:102560001B0AFB837B699A01FB8BDB00B2FBF3F256
:102570003B69D31A3B62032387F827303B6A9AB240
:10258000F98B97F827300093134601227868FFF7FC
:10259000B0FEFB68DA007B69B2FBF3F27B689A62FB
:1025A00006E0FB68DA007B69B2FBF3F27B689A62B3
:1025B0007B68DB68002B3DD07B6893F82C30002BC8
:1025C00038D07B68DB687A6810697A68926A032180
:1025D00098472FE07B8B03F00203002B03D0BB6AEC
:1025E00043F40073BB627B8B03F00403002B03D026
:1025F000BB6A43F48073BB627B8B03F00803002B40
:1026000003D0BB6A43F48063BB627B68DB68002B4A
:102610000DD07B685B6A93F83430022B07D17B685E
:10262000DB687A681069BA6A0521984702E07B681E
:10263000BA6ADA617B689B681B887B689B68B3F821
:1026400040309AB27B689B6822F0070292B2A3F8EE
:1026500040207B6800221A7502E000BF00E000BF46
:1026600000BF3037BD4680BD80B582B000AF074B9C
:10267000DB687B607B681B6A01221946786800F082
:10268000BEF800BF0837BD4680BD00BF7001042002
:1026900080B582B000AF074BDB687B607B685B6A0C
:1026A00000221946786800F0AAF800BF0837BD4636
:1026B00080BD00BF7001042080B586B000AF786097
:1026C0000B46FB707B685B6ADB6A7B617B691B681E
:1026D0003B613B69002B05D07B691B7B002B01D044
:1026E000012300E00023FB73FB7B03F00103FB737A
:1026F000FB7B002B28D00EE07B689B681B8899B27F
:102700007B699B683A691344CAB21A707B699B68FB
:102710005A1C7B699A60FB785A1EFA70002B05D010
:102720007B699A687B695B689A42E5D37B699A68A2
:102730007B695B689A4221D17B685B6A00221946FB
:10274000786800F05CF819E07B68DB68002B06D045
:102750007B68DB687A6810690022022198477B69F0
:102760001B68002B0AD17B691B7B83F00103DBB262
:10277000002B03D07B689B681B8800BF00BF183705
:10278000BD4680BD80B584B000AF78607B681B6AB1
:10279000DB6A1B68002B2ED07B681B6ADB6A1B7B05
:1027A000002B28D07B681B6ADB6A1B68FB607B6898
:1027B0001B6ADB6A9B68FA6813441B78DAB27B6891
:1027C0009B6892B21A807B681B6ADB6A9A68013246
:1027D0009A607B681B6ADB6A9A687B681B6ADB6AA3
:1027E0005B689A4207D37B681B6A012219467868A6
:1027F00000F005F800BF00BF1037BD4680BD80B5B2
:1028000086B000AFF860B9601346FB71BB68DB6A45
:1028100000221A73BB68DB6A1A69BB68DA62FB794B
:10282000012B0AD1FB689B689B889AB2FB689B6866
:1028300022F0120292B29A801BE0FB689B689B8890
:102840009AB2FB689B6822F0200292B29A80FB68E1
:1028500093F82D3083F00103DBB2002B09D0FB6825
:102860009B689B889AB2FB689B6822F0010292B237
:102870009A80FB68DB68002B38D0BB6893F8343053
:10288000022B33D1FB689B697B61FB6800229A6154
:10289000BB681B6B1B683B61BB681B6B00221A602B
:1028A000BB681B6B1A69BB681A63BB681B6B1B6830
:1028B000002B03D1BB68002283F834207B69002BF6
:1028C00007D0FB68DB68FA6810697A6904219847C9
:1028D00006E0FB68DB68FA681069F9793A6998479D
:1028E000BB683C331846FEF76BF920E0FB79012BFF
:1028F0000ED100BFFB689B689B8A9BB203F040032C
:10290000402BF7D1FB689B681B8F9BB2002BF1D14A
:10291000BB681B6B1B691B68002B03D1BB680022C3
:1029200083F83420BB683C331846FEF749F9BB688E
:10293000DB6A1B7B002B06D0BB689B6BBA68D26A34
:102940001146F868984700BF1837BD4680BD0000A3
:1029500080B485B000AF786039603A681346DB0018
:102960009B1A5B00154A1344FB607B689B68FA68FE
:1029700012889A817B689B68FA6852881A857B68FE
:102980009B68FA6892889A847B689B68FA68D28808
:102990009A857B689B68FA6812891A847B689B68B1
:1029A000FA6852899A877B689B68FA6892899A804C
:1029B00000BF1437BD4680BC704700BF8CA000002C
:1029C00080B582B000AF0A4B7B600A4B3B6007E0EA
:1029D0007A68131D7B603B68191D396012681A60A4
:1029E0003B68054A9342F3D300F076F8FDF7F8FB15
:1029F00090B4000000000420A00B042080B400AFBD
:102A0000FEE7000080B487B000AF2E4B1B6803F0D8
:102A10000303032B50D801A252F823F02D2A000003
:102A2000352A00003D2A0000A52A0000264B274A2F
:102A30001A603CE0244B254A1A6038E0214B1B68A1
:102A400003F40063002B02D0204B7B6101E01F4B9D
:102A50007B611C4BDB6803F01F033B61194BDB6898
:102A6000DB0A03F00F03FB60164BDB681B0C03F063
:102A70000103BB60134BDB681B0A03F001037B609F
:102A80007A69BB6802FA03F33A6902FB03F2FB6856
:102A9000B2FBF3F27B6822FA03F37B610A4A7B699B
:102AA000136004E00A4B1B68074A136000BF064B23
:102AB0001B68084A136000E000BF1C37BD4680BC9D
:102AC000704700BF00C304400415042080BA8C0185
:102AD000081504200C15042080B584B000AF012136
:102AE000062000F01FF8EFF310837B607B68FB602B
:102AF00072B60A4B0A4A9A60084B4FF4E0225A62B7
:102B0000BFF36F8FBFF34F8FFB68BB60BB6883F36E
:102B1000108800BF1037BD4680BD00BF00ED00E04B
:102B20000000000080B483B000AF78600B46FB70FB
:102B30000E4B44F65902DA60FB78002B07D00B4BA2
:102B40005A697B685B08094913434B6107E0074BEF
:102B50005A697B685B08DB43044913404B610023DF
:102B600018460C37BD4680BC704700BF00C004400B
:102B700080B58CB000AF7860396001F096FE07F147
:102B80000C03184600F07AFD07F10C0207F1080368
:102B90001146184600F0B0FDF862FB6A002B01D028
:102BA000FB6A08E0BB68184600F098FDF862FB6A13
:102BB000002BF7D0FB6A18463037BD4680BD80B584
:102BC00086B000AFF8600B467A60FB72FB7A63F068
:102BD0007F03DBB23B7500237B75FB681B6807F145
:102BE00014010222184601F0A9FA0346002B02D074
:102BF0004FF0FF3303E07A7D7B681A70002318469C
:102C00001837BD4680BD80B584B000AF78600B46F4
:102C1000FB701346BB70FB7803F07F03DBB23B73A2
:102C2000BB787B737B681B6807F10C010222184696
:102C300001F084FA0346002B02D04FF0FF3300E08E
:102C4000002318461037BD4680BD80B586B000AF62
:102C5000F8607A601A460B46FB721346BB72BB7A69
:102C60005B00184602F036FB03463B610023FB8203
:102C70000FE0FB7A5A1CFA72FA8A39690A44137017
:102C8000FB8A01333A69134400221A70FB8A02332B
:102C9000FB82FA8ABB7A5B009A42EADBFB6818681F
:102CA000BB7A5B00DBB21A46396901F047FA03468A
:102CB000002B02D04FF0FF3317E00023FB820EE021
:102CC000FB8A5B0001333A691A44FB8A9B007968EE
:102CD0000B441B6812781A70FB8A0133FB82BB7AA3
:102CE0009BB2FA8A9A42EBD3002318461837BD46A6
:102CF00080BD80B584B000AF78600B46FB7007F1F3
:102D00000B031A4611217868FFF759FFF860FB683A
:102D1000002B02D04FF0FF3316E0FB7A23F00703BD
:102D2000DBB2FB7297F9033003F007035AB2FB7A68
:102D30005BB213435BB2DBB2FB72FB7A1A46112122
:102D40007868FFF760FF034618461037BD4680BD20
:102D500080B584B000AF78600B46FB7007F10B03C1
:102D60001A4611217868FFF72AFFF860FB68002BEC
:102D700002D04FF0FF3314E0FB7A03F00F03DBB215
:102D8000FB72FB781B015AB2FB7A5BB213435BB256
:102D9000DBB2FB72FB7A1A4611217868FFF733FF2A
:102DA000034618461037BD4680BD80B586B000AFDB
:102DB000F8600B467A60FB72FB7A0433DBB25B008F
:102DC000D9B207F114020223F868FFF73EFF034669
:102DD000002B02D04FF0FF3309E07B7D1B021AB2BB
:102DE0003B7D1BB213431AB27B681A80002318463E
:102DF0001837BD4680BD80B586B000AFF860B960B9
:102E00007A6007F1140204230821F868FFF71DFF18
:102E10000346002B02D04FF0FF3312E07B7D1B02F4
:102E20001AB23B7D1BB213431AB2BB681A80FB7DFA
:102E30001B021AB2BB7D1BB213431AB27B681A8005
:102E4000002318461837BD4680BD80B586B000AF58
:102E50007860396000237B61082002F03BFA03466A
:102E60003B613B69002B1CD03B693A681146184610
:102E700001F068F878617B69002B14D007F10F032B
:102E80001A4602213869FFF79AFE78617B69002BA8
:102E900002D0FB7B922B08D17B683A691A607B6970
:102EA00008E000BF02E000BF00E000BF386902F0A8
:102EB00019FA7B6918461837BD4680BD80B584B0C5
:102EC00000AF78600B46FB70FB7883F00103DBB248
:102ED000002B2DD07B685B681B681B49184601F0EE
:102EE000DFFBF860FB68002B01D0FB6828E07B6803
:102EF0005B681B681549184601F0D2FBFB68002B84
:102F000001D0FB681CE07B685B681B6810491846B1
:102F100001F0C6FBFB68002B01D0FB6810E07B686A
:102F20005B681B680B49184601F0BAFB034607E0D3
:102F30007B685B681B680849184601F0B1FB0346D3
:102F400018461037BD4680BDF0A0000010A100005B
:102F50006CA100008CA10000ACA1000080B584B081
:102F600000AF78600B46FB70FB7883F00103DBB2A7
:102F7000002B08D07B685B681B689549184601F0F8
:102F80008FFBF86007E07B685B681B689149184617
:102F900001F086FBF860FB68002B01D0FB6815E2AE
:102FA0007B685B681B688C49184601F079FBF86008
:102FB000FB68002B01D0FB6808E27B685B681B683C
:102FC0008649184601F06CFBF860FB68002B01D0C5
:102FD000FB68FBE17B685B681B688149184601F070
:102FE0005FFBF860FB68002B01D0FB68EEE17B68BB
:102FF0005B681B687B49184601F052FBF860FB6870
:10300000002B01D0FB68E1E17B685B681B687649B7
:10301000184601F045FBF860FB68002B01D0FB6807
:10302000D4E17B685B681B687049184601F038FB87
:10303000F860FB68002B01D0FB68C7E17B685B6828
:103040001B686B49184601F02BFBF860FB68002BEE
:1030500001D0FB68BAE17B685B681B68654918466C
:1030600001F01EFBF860FB68002B01D0FB68ADE1AE
:103070007B685B681B686049184601F011FBF860CB
:10308000FB68002B01D0FB68A0E1FB7883F0010313
:10309000DBB2002B19D07B685B681B685749184668
:1030A00001F0FEFAF860FB68002B01D0FB688DE1AF
:1030B0007B685B681B685249184601F0F1FAF860BA
:1030C000FB68002B1BD0FB6880E17B685B681B689A
:1030D0004C49184601F0E4FAF860FB68002B01D077
:1030E000FB6873E17B685B681B684749184601F021
:1030F000D7FAF860FB68002B01D0FB6866E17B68BB
:103100005B681B683449184601F0CAFAF860FB682E
:10311000002B01D0FB6859E17B685B681B683B4969
:10312000184601F0BDFAF860FB68002B01D0FB687F
:103130004CE17B685B681B683549184601F0B0FAC2
:10314000F860FB68002B01D0FB683FE17B685B689F
:103150001B683049184601F0A3FAF860FB68002BA1
:1031600001D0FB6832E17B685B681B682A4918461E
:1031700001F096FAF860FB68002B01D0FB6825E1AE
:103180007B685B681B682549184601F089FAF8607E
:10319000FB68002B01D0FB6818E17B685B681B684B
:1031A0001F49184601F07CFAF860FB68002B01D03B
:1031B000FB680BE17B685B681B681A49184601F0E5
:1031C0006FFAF860FB68002B2ED0FB68FEE000BFB2
:1031D000CCA1000020A2000074A20000C0A2000048
:1031E000F8A2000030A3000068A30000A0A3000024
:1031F000D8A3000010A4000048A4000080A4000090
:10320000B4A40000E4A4000010A500003CA5000048
:1032100078A50000B4A50000F0A500002CA60000D1
:1032200068A60000A4A600007B685B681B6869496B
:10323000184601F035FAF860FB68002B01D0FB68F6
:10324000C4E07B685B681B686349184601F028FA94
:10325000F860FB68002B01D0FB68B7E07B685B6817
:103260001B685E49184601F01BFAF860FB68002BEA
:1032700001D0FB68AAE07B685B681B685849184668
:1032800001F00EFAF860FB68002B01D0FB689DE0AE
:10329000FB7883F00103DBB2002B4ED07B685B68C8
:1032A0001B685049184601F0FBF9F860FB68002BD9
:1032B00001D0FB688AE07B685B681B684A49184656
:1032C00001F0EEF9F860FB68002B01D0FB687DE0AF
:1032D0007B685B681B684549184601F0E1F9F860B6
:1032E000FB68002B01D0FB6870E0FB68002B01D06D
:1032F000FB686BE07B685B681B683D49184601F022
:10330000CFF9F860FB68002B01D0FB685EE07B68BA
:103310005B681B683749184601F0C2F9F860FB6822
:10332000002B01D0FB6851E07B685B681B68324969
:10333000184601F0B5F9034648E07B685B681B68F6
:103340002E49184601F0ACF9F860FB68002B01D05B
:10335000FB683BE07B685B681B682949184601F005
:103360009FF9F860FB68002B01D0FB682EE07B68BA
:103370005B681B681D49184601F092F9F860FB680C
:10338000002B01D0FB6821E07B685B681B681D494E
:10339000184601F085F9F860FB68002B01D0FB6846
:1033A00014E07B685B681B681749184601F078F9E0
:1033B000F860FB68002B01D0FB6807E07B685B6866
:1033C0001B681249184601F06BF90346184610377E
:1033D000BD4680BDE0A600001CA7000058A7000065
:1033E00094A70000D0A7000004A800004CA800008B
:1033F000A0A80000D4A8000008A900003CA9000073
:1034000068A90000B0A90000DCA9000008AA00001B
:1034100080B584B000AF7860396000217868FFF72C
:103420004DFDF860FB68002B01D0FB6818E000211F
:103430007868FFF793FDF860FB68002B01D0FB680C
:103440000EE001217868FFF739FDF860FB68002B7A
:1034500001D0FB6804E001217868FFF77FFD034697
:1034600018461037BD4680BD80B582B000AF786089
:103470007B685B681B680449184601F011F900BFBE
:103480000837BD4680BD00BF34AA000080B584B0B7
:1034900000AF786039603B68002B04D17868FFF793
:1034A000E3FF00230CE0386801F098FE0346FB734D
:1034B0007B681B68FA7B11461846FFF71AFC034627
:1034C00018461037BD4680BD80B584B000AF786027
:1034D00039603B68002B04D17868FFF7C5FF0023F3
:1034E0000CE0386801F07AFE0346FB737B681B68CA
:1034F000FA7B11461846FFF72BFC03461846103797
:10350000BD4680BD80B58AB000AF786039600023C9
:103510007B623B68002B03D1002387F8233003E054
:103520003B681B7887F8233097F82330782B03D03B
:1035300097F82330582B22D07B681B6807F12002B4
:1035400000211846FFF731FC78627B685B681B68D6
:103550004149184601F0A4F8B7F920301A4607F19E
:1035600008033E49184602F0BFF97B685B681B6898
:1035700007F108021146184601F092F866E097F844
:103580002330792B03D097F82330592B22D07B6836
:103590001B6807F11E0201211846FFF706FC78623E
:1035A0007B685B681B682E49184601F079F8B7F90B
:1035B0001E301A4607F108032849184602F094F90C
:1035C0007B685B681B6807F108021146184601F02A
:1035D00067F83BE07B681B6807F11E0207F12001DA
:1035E0001846FFF708FC78627B685B681B681A491D
:1035F000184601F055F8B7F920301A4607F10803CC
:103600001649184602F070F97B685B681B6807F181
:1036100008021146184601F043F87B685B681B6896
:103620000F49184601F03CF8B7F91E301A4607F169
:1036300008030A49184602F057F97B685B681B6863
:1036400007F108021146184601F02AF87B6A18466D
:103650002837BD4680BD00BF74AA000088AA0000BC
:103660008CAA000080B483B000AF7860396000237A
:1036700018460C37BD4680BC7047000080B483B04C
:1036800000AF78607B68FF221A717B680022DA60E5
:103690007B6801229A607B680F4A1A607B6800226F
:1036A0005A717B6800229A717B6801221A767B68C6
:1036B00000225A767B6800229A767B6804221A7769
:1036C0007B6808225A777B6801229A7700BF0C3703
:1036D000BD4680BC704700BF4054890080B582B0B1
:1036E00000AF78607B685B68184600F049F90346D4
:1036F00018460837BD4680BD90B589B000AF7860E8
:103700003960334B07F108040FCB07C4238008212D
:10371000012001F067FD0346BB61BB69002B02D1AC
:103720004FF0FF334FE000F0A9FDF861FB69002B7B
:103730003ED1BB691A1D3B681C331946104600F088
:103740005BF8F861FB69002B34D1BB695B682149E8
:10375000184600F0C5FABB695B681F49184600F0BF
:10376000CCFABB695B681D49184600F0D3FABB6907
:103770005B68B969184600F0DAFABB695B6807F163
:1037800008021146184600F0D1F9F861FB69002BD8
:1037900012D1BB693A6811461846FFF756FBF8612B
:1037A000FB69002B0AD17B68BA691A60FB690AE0E1
:1037B00000BF04E000BF02E000BF00E000BFB86946
:1037C00001F090FDFB6918462437BD4690BD00BF4F
:1037D000A0AA00008001042098010420C401042054
:1037E00080B400AF00BFBD4680BC704780B400AF5E
:1037F00000BFBD4680BC704780B584B000AF786024
:1038000039601421012001F0EDFC0346FB60FB68E8
:10381000002B02D14FF0FF3313E0FB683A681146EA
:10382000184600F0AFFDB860BB68002B04DB7B6876
:10383000FA681A60BB6804E000BFF86801F052FD46
:10384000BB6818461037BD4680BD000080B586B005
:1038500000AF78600023FB730123BB737B6818689B
:1038600007F10E0207F10F01012300F0F5FF3861A7
:103870003B69002B01DA3B6974E0BB7B012B70D103
:10388000FB7B0D2B59D801A252F823F051390000CF
:103890003B3900003B3900003B3900003B39000058
:1038A0003B3900003B3900003B390000CD380000B7
:1038B000E3380000C53800003B3900003B39000008
:1038C000C5380000294B01221A7044E0284B1B78B0
:1038D000002B3FD0264B1B78013BDAB2244B1A70E9
:1038E00039E07B681B682349184600F0D9FE0023A5
:1038F000FB7597F9172097F917301F49895C1F4A04
:10390000D1547B68186897F917301C4AD35C0022A1
:10391000194600F081FE97F91720D3B20133DBB2CC
:10392000FB75154B9B5C002BE3D1FB7D013BDBB2B0
:10393000FB75FA7D0E4B1A700DE00D4B1B785A1C6F
:10394000D1B20B4A11701A46F97B0C4B995402E024
:1039500000BF00E000BF064B1B781A46074B002152
:1039600099543B6918461837BD4680BD2D15042073
:103970002C150420B0AA00004C1704204C1604207B
:10398000B0B586B000AF78600023FB600023FB7504
:10399000FFF726FF7868FFF759FF38613B69002B76
:1039A00001DA3B6960E0FFF721FF314B1B78012B07
:1039B00059D1FA7DFB7D2F49895C2F4AD154FB7D7B
:1039C0005A1CFA751A462B4B9B5C002BF1D107F160
:1039D0000C031A462749786800F056F8FB68002B5C
:1039E00012D07B681B682549184600F059FEFC6818
:1039F0007B68DD6820211F4801F098FF03460133F2
:103A000019462846A04721E005221D49194802F021
:103A100001F80346002B03D17B680022DA6015E031
:103A2000144B1B78002B11D07B681B681349184678
:103A300000F036FE7B681B681249184600F030FE25
:103A40007B681B680D49184600F02AFE084B0022CF
:103A50001A700021786800F069F838613B69002B22
:103A600001DA3B6900E03B6918461837BD46B0BD36
:103A70002D1504204C1604204C170420B4AA000075
:103A8000B8AA0000C0AA000080B586B000AFF860F8
:103A9000B9607A600023FB7537E0FB685A68FB7DEC
:103AA0009B0013441968FB681A69FB7D13441B785B
:103AB0001A46B86801F0AEFF0346002B13D0FB682E
:103AC0005A68FB7D01339B0013441968FB681A692F
:103AD000FB7D013313441B781A46B86801F09AFF46
:103AE0000346002B0ED1FB681B69002B18D0FB6826
:103AF0009A68FB7D5B08DBB29B0013441A687B6805
:103B00001A600EE0FB7D0233FB75FB689A68FB7D53
:103B10005B08DBB29B0013441B68002BBDD100E0A7
:103B200000BF00BF1837BD4680BD000080B584B01F
:103B300000AF786039607B681B685349184600F015
:103B4000AFFDF860514B1B78002B40F08A807B68FA
:103B50001B684F49184600F0A3FD7B681B684D4960
:103B6000184600F09DFD7B681B684B49184600F025
:103B700097FD7B681B684949184600F091FD7B68FA
:103B80001B684749184600F08BFD7B681B68454958
:103B9000184600F085FD7B681B684349184600F015
:103BA0007FFD7B681B684149184600F079FD7B6802
:103BB0001B683F49184600F073FD7B681B683D4950
:103BC000184600F06DFD7B681B683B49184600F005
:103BD00067FD7B681B683949184600F061FD7B680A
:103BE0001B683749184600F05BFD7B681B68354948
:103BF000184600F055FD7B681B683349184600F0F5
:103C00004FFD7B681B683149184600F049FD7B6811
:103C10001B681D49184600F043FD7B681B682C4952
:103C2000184600F03DFD7B681B683968184600F0B7
:103C300037FD7B681B682749184600F031FD7B681B
:103C40001B682549184600F02BFD7B681B680E4950
:103C5000184600F025FD0D4B1B780133DAB20B4BF3
:103C60001A70FB68002B06D17B681B6800223E217E
:103C7000184600F0D1FC194B00221A70FB68184658
:103C80001037BD4680BD00BFB4AA00001015042047
:103C9000D4AA000038AB0000A0AB000008AC0000C4
:103CA00070AC0000D8AC000040AD0000A8AD000032
:103CB00010AE000078AE0000E0AE000048AF00009B
:103CC000B0AF000018B0000080B00000E8B0000005
:103CD00050B1000064B1000074B100002C15042044
:103CE00080B483B000AF786039607B683A689A60CE
:103CF00000BF0C37BD4680BC704780B483B000AFB6
:103D0000786039607B683A685A6000BF0C37BD46FE
:103D100080BC704780B483B000AF786039607B6846
:103D20003A681A6100BF0C37BD4680BC704780B44A
:103D300083B000AF786039607B683A68DA6000BFB2
:103D40000C37BD4680BC704780B582B000AF78604C
:103D500039607B68002B02D03B68002B01D1012326
:103D60002EE00821012001F03DFA03461A467B6847
:103D70001A607B681B68002B01D1012320E07B685F
:103D80001B683A6812781A700F4B1B78002B10D101
:103D900010210E48FCF7B0FB0346002B09D07B68CE
:103DA0001B68184601F09EFA7B6800221A60012306
:103DB00006E0054B1B780133DAB2034B1A7000237F
:103DC00018460837BD4680BD24150420141504206C
:103DD00080B584B000AF78600B46FB707B68002B29
:103DE00003D0264B1B78002B01D1012342E07B68D6
:103DF0001B781B09D8B27B681B7803F00F030122E4
:103E000002FA03F39BB201221946FCF7A5FB034615
:103E1000FB73FB7B002B01D001232BE0FB78012BF4
:103E200011D17B681B781B09D8B27B681B7803F023
:103E30000F03012202FA03F39BB21946FCF7C6FBFB
:103E40000346FB7310E07B681B781B09D8B27B68C4
:103E50001B7803F00F03012202FA03F39BB2194609
:103E6000FCF7CCFB0346FB73FB7B002B01D001234B
:103E700000E0002318461037BD4680BD24150420FD
:103E800080B584B000AF78600B46FB707B68002B78
:103E900003D01B4B1B78002B01D101232BE0FB78B7
:103EA000002B11D17B681B781B09D8B27B681B786B
:103EB00003F00F03012202FA03F39BB21946FCF749
:103EC0009DFB0346FB7310E07B681B781B09D8B28F
:103ED0007B681B7803F00F03012202FA03F39BB205
:103EE0001946FCF773FB0346FB73FB7B002B01D0E9
:103EF000012300E0002318461037BD4680BD00BFF7
:103F00002415042080B582B000AFFCF701FC034605
:103F10007B607B68002B01D07B680FE001210120D2
:103F2000FCF788FC03467B607B68002B01D07B6834
:103F300004E001210020FCF77DFC03461846083709
:103F4000BD4680BD80B584B000AF78603960102177
:103F5000012001F047F90346BB60BB68002B02D18A
:103F60004FF0FF33E0E0BB6800221A713B689A68AB
:103F7000BB689A603B681A68BB681A603B685A79EC
:103F8000BB685A713B689A79BB689A713B68DA687A
:103F9000BB68DA60664B1B78002B0AD07B68BA6876
:103FA0001A60634B1B780133DAB2614B1A7000233D
:103FB000BAE0BB6898685F4B2C225F49FCF76CFE47
:103FC0000346FB60FB68002B40F09980594B1A6850
:103FD000BB681B6819461046FCF71AFF0346FB60D6
:103FE000FB68002B40F08D803B681B79FF2B1BD1B9
:103FF000BB689B68002B0BD14E4B1B6802211846F7
:10400000FCF75AFF0346FB60FB68002B2DD087E0CE
:10401000484B1B6801211846FCF74EFF0346FB6026
:10402000FB68002B21D07BE0424B1B680121184626
:10403000FCF742FF0346FB60FB68002B63D1BB68C3
:104040001A1D3B681B7919461046FFF77DFEF86084
:10405000FB68002B59D1BB681B7900211846FFF77C
:10406000B7FEF860FB68002B51D1324B1B68012171
:104070001846FCF7A9FE0346FB60FB68002B48D1FD
:104080002C4B1B6801211846FCF77CFE0346FB60A5
:10409000FB68002B3FD1274B1A68BB685B795B102C
:1040A00003F00103002B14BF01230023DBB21946E8
:1040B0001046FCF7DDFE0346FB60FB68002B2CD1AD
:1040C0001C4B1A68BB685B7903F00103002B14BF1B
:1040D00001230023DBB219461046FCF7FDFE034620
:1040E000FB60FB68002B1AD17B68BA681A60104B22
:1040F0001B780133DAB20E4B1A70FB6814E000BF74
:104100000EE000BF0CE000BF0AE000BF08E000BF07
:1041100006E000BF04E000BF02E000BF00E000BF17
:10412000B86801F0DFF8FB6818461037BD4680BD5F
:1041300025150420441604201816042080B58AB0E2
:1041400000AFF860B9601346FB71BB687B61FB7917
:104150009BB2BB83012387F82030BB68BB61FB792E
:104160009BB2FB83012387F82130002387F822309C
:10417000002387F82330FB681B79002B0BD0FB68EA
:104180001B7900211846FFF77BFE78627B6A002BC3
:1041900001D07B6A1FE0124B1B6807F11402114625
:1041A0001846FCF7BDFE03467B627B6A002B01D0FC
:1041B0007B6A10E0FB681B79002B0BD0FB681B7936
:1041C00001211846FFF75CFE78627B6A002B01D064
:1041D0007B6A00E07B6A18462837BD4680BD00BF79
:1041E0004416042080B483B000AF03463960FB71ED
:1041F00097F90730002B0ADB3B68DAB20C4997F9D4
:1042000007305201D2B20B4483F800230AE03B6826
:10421000DAB20849FB7903F00F03043B5201D2B232
:104220000B441A7600BF0C37BD4680BC704700BFF8
:1042300000E100E000ED00E080B582B000AF786002
:104240007B68013BB3F1807F01D301230FE00A4A71
:104250007B68013B536007214FF0FF30FFF7C2FF3F
:10426000054B00229A60044B07221A60002318466F
:104270000837BD4680BD00BF10E000E080B582B0C9
:1042800000AFFFF73FFE78607B68002B01D07B68B2
:1042900004E046F29050FFF7CFFF7B6818460837DE
:1042A000BD4680BD80B400AF064B1B68002B04D018
:1042B000044B1B68013B034A136000BFBD4680BC32
:1042C000704700BF2815042080B584B000AFF860A7
:1042D000B9607A60BB68012B32D0012B02D3022B6C
:1042E0000FD03AE07B681F4A934202D11E4B022254
:1042F0001A707B681D4A93422CD11D4B02221A7002
:1043000028E0194B1B78002B0AD11A4B18681A4B5E
:10431000196800230122FDF7F1FD134B01221A70E9
:10432000134B1B78002B17D1124B1868134B1968CD
:1043300000230122FDF7E2FD0D4B01221A700BE074
:104340000F4B1B785BB2DBB2013BDBB25AB20C4BBA
:104350001A7002E000BF00E000BF00BF1037BD468A
:1043600080BD00BF481604202E150420001904202B
:104370002F1504204C180420D0010420D40104205F
:1043800030150420B0B596B002AF786039600321D3
:10439000012000F027FF03467B647B6C002B02D1D9
:1043A0004FF0FF33D8E03B681A787B6C1A703B689B
:1043B0005A787B6C5A703B689A787B6C9A70684A22
:1043C00007F1380307CA03C31A80664A07F12C03B2
:1043D00007CA03C31A80644A07F1200307CA03C34C
:1043E0001A80624B07F10C041D460FCD0FC42B68D9
:1043F00023607B6C5B78053B032B1BD801A252F832
:1044000023F000BF154400001D44000025440000B7
:104410002D440000002387F84B300EE0012387F87D
:104420004B300AE0022387F84B3006E0032387F87D
:104430004B3002E0032387F84B304D4B0093B02301
:104440004C4A02210020FDF77FFB0346FB64FB6C16
:10445000002B72D1464B186897F84B300022002190
:10446000FDF71EFF0346FB64FB6C002B67D1404B3E
:1044700018687B6C1B7807F15002134413F8243C36
:1044800099B27B6C1B7807F15002134413F8302C5F
:104490007B6C1B785B0007F15004234433F8444CD9
:1044A0007B6C1B7807F150052B4413F8183C0093E4
:1044B0002346FDF71EFF0346FB64FB6C002B40D137
:1044C0007B6C9B78002B0BD0294B1B6800222A4960
:1044D0001846FDF7D3FE0346FB64FB6C002B32D17C
:1044E000264B1B78002B0FD1214B1868244B1968E1
:1044F00000230122FDF702FD0346FB64FB6C002B49
:1045000023D11E4B01221A701E4B1B78002B0FD19A
:10451000174B18681C4B196800230122FDF7EEFCAD
:104520000346FB64FB6C002B11D1164B01221A7061
:104530007B687A6C1A60FB6C0EE000BF08E000BF7D
:1045400006E000BF04E000BF02E000BF00E000BFE3
:10455000786C00F0C7FEFB6C18465037BD46B0BD06
:10456000A8B10000B4B10000C0B10000CCB100009F
:104570004C18042050180420C94200002E150420B5
:10458000D00104202F150420D401042080B588B068
:1045900002AF78600B46FB7001237B617B689B78E0
:1045A000002B26D01A4B1868F91C00237A69FDF7F6
:1045B000F1FB03463B613B69002B01D03B6923E0E3
:1045C000144B1B785BB2DBB20133DBB25AB2114B36
:1045D0001A7000BF0F4B1B785BB2002BFADC0D4B3F
:1045E0001B785BB2002B01D100230DE04FF0FF33AD
:1045F0000AE0074B1868F91C07F10C03009300232D
:104600007A69FDF782FD034618461837BD4680BD1E
:104610004C1804203015042080B586B000AF7860B7
:104620000B46FB701346BB7001233B61BB78002B2C
:1046300002D0012B07D027E0FB7819467868FFF7F6
:10464000A5FF786124E0154B1B6807F10F021146A6
:104650001846FDF7D3FD03467B617B69002B01D033
:104660007B6916E0FB7B83F00103DBB2002B01D0FA
:104670007B690EE0094B1868F91C00233A69FDF7C5
:1046800089FB03467B6103E04FF0FF337B6100BF92
:104690007B6918461837BD4680BD00BF4C18042002
:1046A00080B584B000AF786039600023FB600CE017
:1046B0003B685A1C3A601B78002219467868FFF75D
:1046C000ABFFF860FB68002B04DB3B681B78002B1A
:1046D000EED100E000BFFB6818461037BD4680BD34
:1046E00080B584B000AF786039600123FB607B68DF
:1046F0009B7883F00103DBB2002B18D0204B1B7892
:10470000002B0AD11F4B1B78002B06D11E4B1868BB
:1047100039680023FA68FDF7F1FB1B4B1B6807F1B2
:10472000080239461846FDF79DFC034623E000BF0A
:10473000134B1B78022B03D0124B1B78022BF7D1A3
:104740000F4B1B78022B08D1104B1A683B6812786C
:10475000D2B21A700A4B00221A700A4B1B78022B35
:1047600008D10B4B1A683B681278D2B21A70054B0D
:1047700000221A70002318461037BD4680BD00BFC6
:104780002E1504202F1504204C180420D0010420DD
:10479000D401042080B588B000AFF860B9607A60B9
:1047A000FB689B7883F00103DBB2002B24D0254B00
:1047B0001B6807F1170211461846FDF73FFD034637
:1047C000FB61FB69002B01D0FB6936E0FB7D83F0C8
:1047D0000103DBB2002B01D000232EE07B68012215
:1047E0001A70184B1B6807F1180207F108011846E8
:1047F000FDF738FC034620E0134B1B78022B0BD14E
:10480000124B1A68BB681278D2B21A707B68012208
:104810001A700D4B00221A700D4B1B78022B0BD116
:104820000C4B1A68BB681278D2B21A707B680122EE
:104830001A70074B00221A70002318462037BD4615
:1048400080BD00BF4C1804202E150420D001042088
:104850002F150420D401042080B586B000AFF86085
:10486000B9607A60FB707B6800221A70FB78002BBD
:1048700002D0012B09D00FE0B968F868FFF730FFCC
:1048800078617B6801221A700AE07A68B968F86872
:10489000FFF780FF786103E04FF0FF337B6100BFDB
:1048A0007B6918461837BD4680BD80B582B000AF21
:1048B00000237B607B68002B02D100F007F8786052
:1048C0007B6818460837BD4680BD000080B400AF45
:1048D000064B074A1A60074B074A1A60074B084AFB
:1048E0001A6000231846BD4680BC70470000024095
:1048F000000050204000024000503500800002407F
:104900002000400081F0004102E000BF83F000433E
:1049100030B54FEA41044FEA430594EA050F08BF5A
:1049200090EA020F1FBF54EA000C55EA020C7FEA1E
:10493000645C7FEA655C00F0E2804FEA5454D4EB9B
:104940005555B8BF6D420CDD2C4480EA020281EA65
:10495000030382EA000083EA010180EA020281EA9D
:104960000303362D88BF30BD11F0004F4FEA0131EF
:104970004FF4801C4CEA113102D0404261EB4101FE
:1049800013F0004F4FEA03334CEA133302D0524284
:1049900063EB430394EA050F00F0A780A4F1010440
:1049A000D5F1200E0DDB02FA0EFC22FA05F280187A
:1049B00041F1000103FA0EF2801843FA05F3594160
:1049C0000EE0A5F120050EF1200E012A03FA0EFCDF
:1049D00028BF4CF0020C43FA05F3C01851EBE37109
:1049E00001F0004507D54FF0000EDCF1000C7EEB26
:1049F00000006EEB0101B1F5801F1BD3B1F5001F64
:104A00000CD349085FEA30004FEA3C0C04F1010482
:104A10004FEA445212F5800F80F09A80BCF1004FAB
:104A200008BF5FEA500C50F1000041EB045141EA2D
:104A3000050130BD5FEA4C0C404141EB010111F42E
:104A4000801FA4F10104E9D191F0000F04BF0146D9
:104A50000020B1FA81F308BF2033A3F10B03B3F1B7
:104A600020020CDA0C3208DD02F1140CC2F10C0247
:104A700001FA0CF021FA02F10CE002F11402D8BFA5
:104A8000C2F1200C01FA02F120FA0CFCDCBF41EA71
:104A90000C019040E41AA2BF01EB0451294330BD40
:104AA0006FEA04041F3C1CDA0C340EDC04F114041D
:104AB000C4F1200220FA04F001FA02F340EA0300F4
:104AC00021FA04F345EA030130BDC4F10C04C4F13A
:104AD000200220FA02F001FA04F340EA030029461A
:104AE00030BD21FA04F0294630BD94F0000F83F464
:104AF000801306BF81F480110134013D4EE77FEA47
:104B0000645C18BF7FEA655C29D094EA050F08BF92
:104B100090EA020F05D054EA000C04BF1946104673
:104B200030BD91EA030F1EBF0021002030BD5FEAB7
:104B3000545C05D14000494128BF41F0004130BDDF
:104B400014F580043CBF01F5801130BD01F0004533
:104B500045F0FE4141F470014FF0000030BD7FEAA6
:104B6000645C1ABF194610467FEA655C1CBF0B46A1
:104B7000024650EA013406BF52EA033591EA030FB8
:104B800041F4002130BD00BF90F0000F04BF0021B0
:104B9000704730B54FF4806404F132044FF00005E3
:104BA0004FF0000150E700BF90F0000F04BF00215C
:104BB000704730B54FF4806404F1320410F00045C2
:104BC00048BF40424FF000013EE700BF42004FEABD
:104BD000E2014FEA31014FEA02701FBF12F07F433A
:104BE00093F07F4F81F06051704732F07F4208BFF1
:104BF000704793F07F4F04BF41F40021704730B5F8
:104C00004FF4607401F0004521F000411CE700BF43
:104C100050EA010208BF704730B54FF000050AE0C6
:104C200050EA010208BF704730B511F0004502D5C7
:104C3000404261EB41014FF4806404F132045FEAC9
:104C4000915C3FF4D8AE4FF003025FEADC0C18BF72
:104C500003325FEADC0C18BF033202EBDC02C2F164
:104C6000200300FA03FC20FA02F001FA03FE40EAF6
:104C70000E0021FA02F11444BDE600BF70B54FF0FA
:104C8000FF0C4CF4E06C1CEA11541DBF1CEA1355D8
:104C900094EA0C0F95EA0C0F00F0DEF82C4481EA40
:104CA000030621EA4C5123EA4C5350EA013518BF60
:104CB00052EA033541F4801143F4801338D0A0FB4D
:104CC00002CE4FF00005E1FB02E506F00042E0FBFA
:104CD00003E54FF00006E1FB03569CF0000F18BF00
:104CE0004EF0010EA4F1FF04B6F5007F64F54074A8
:104CF00004D25FEA4E0E6D4146EB060642EAC6213B
:104D000041EA55514FEAC52040EA5E504FEACE2EA7
:104D1000B4F1FD0C88BFBCF5E06F1ED8BEF1004FAA
:104D200008BF5FEA500E50F1000041EB045170BD26
:104D300006F0004646EA010140EA020081EA03016A
:104D4000B4EB5C04C2BFD4EB0C0541EA045170BD66
:104D500041F480114FF0000E013C00F3AB8014F1E0
:104D6000360FDEBF002001F0004170BDC4F1000429
:104D7000203C35DA0C341BDC04F11404C4F12005AA
:104D800000FA05F320FA04F001FA05F240EA020005
:104D900001F0004221F0004110EBD37021FA04F63B
:104DA00042EB06015EEA430E08BF20EAD37070BDF5
:104DB000C4F10C04C4F1200500FA04F320FA05F054
:104DC00001FA04F240EA020001F0004110EBD37056
:104DD00041F100015EEA430E08BF20EAD37070BDC6
:104DE000C4F1200500FA05F24EEA020E20FA04F39F
:104DF00001FA05F243EA020321FA04F001F000414E
:104E000021FA04F220EA020000EBD3705EEA430EBE
:104E100008BF20EAD37070BD94F0000F0FD101F0ED
:104E20000046400041EB010111F4801F08BF013C26
:104E3000F7D041EA060195F0000F18BF704703F064
:104E40000046520043EB030313F4801F08BF013DEB
:104E5000F7D043EA0603704794EA0C0F0CEA1355A7
:104E600018BF95EA0C0F0CD050EA410618BF52EA61
:104E70004306D1D181EA030101F000414FF0000067
:104E800070BD50EA410606BF1046194652EA430675
:104E900019D094EA0C0F02D150EA013613D195EAE9
:104EA0000C0F05D152EA03361CBF104619460AD131
:104EB00081EA030101F0004141F0FE4141F470013B
:104EC0004FF0000070BD41F0FE4141F4780170BD2B
:104ED00070B54FF0FF0C4CF4E06C1CEA11541DBF90
:104EE0001CEA135594EA0C0F95EA0C0F00F0A7F892
:104EF000A4EB050481EA030E52EA03354FEA0131BF
:104F000000F088804FEA03334FF0805545EA1313D1
:104F100043EA12634FEA022245EA111545EA106599
:104F20004FEA00260EF000419D4208BF964244F130
:104F3000FD0404F5407402D25B084FEA3202B61A4F
:104F400065EB03055B084FEA32024FF480104FF423
:104F5000002CB6EB020E75EB030E22BFB61A754697
:104F600040EA0C005B084FEA3202B6EB020E75EB2A
:104F7000030E22BFB61A754640EA5C005B084FEA92
:104F80003202B6EB020E75EB030E22BFB61A75465F
:104F900040EA9C005B084FEA3202B6EB020E75EB6A
:104FA000030E22BFB61A754640EADC0055EA060E2B
:104FB00018D04FEA051545EA16754FEA06164FEA6E
:104FC000C30343EA52734FEAC2025FEA1C1CC0D11A
:104FD00011F4801F0BD141EA00014FF000004FF0A7
:104FE000004CB6E711F4801F04BF01430020B4F168
:104FF000FD0C88BFBCF5E06F3FF6AFAEB5EB030C20
:1050000004BFB6EB020C5FEA500C50F1000041EB1C
:10501000045170BD0EF0004E4EEA113114EB5C04E9
:10502000C2BFD4EB0C0541EA045170BD41F48011BC
:105030004FF0000E013C90E645EA060E8DE60CEAC4
:10504000135594EA0C0F08BF95EA0C0F3FF43BAFE1
:1050500094EA0C0F0AD150EA01347FF434AF95EA98
:105060000C0F7FF425AF104619462CE795EA0C0F7C
:1050700006D152EA03353FF4FDAE1046194622E749
:1050800050EA410618BF52EA43067FF4C5AE50EA23
:1050900041047FF40DAF52EA43057FF4EBAE12E713
:1050A0004FF0FF3C06E000BF4FF0010C02E000BFF4
:1050B0004FF0010C4DF804CD4FEA410C7FEA6C5CD7
:1050C0004FEA430C18BF7FEA6C5C1BD001B050EA7A
:1050D000410C0CBF52EA430C91EA030F02BF90EA65
:1050E000020F0020704710F1000F91EA030F58BF24
:1050F000994208BF90422CBFD8176FEAE37040F086
:10510000010070474FEA410C7FEA6C5C02D150EA23
:10511000013C07D14FEA430C7FEA6C5CD6D152EADE
:10512000033CD3D05DF8040B704700BF84461046A3
:1051300062468C461946634600E000BF01B5FFF7A2
:10514000B7FF002848BF10F1000F01BD4DF808ED72
:10515000FFF7F4FF0CBF012000205DF808FB00BF43
:105160004DF808EDFFF7EAFF34BF012000205DF89D
:1051700008FB00BF4DF808EDFFF7E0FF94BF0120EA
:1051800000205DF808FB00BF4DF808EDFFF7CEFFEB
:1051900094BF012000205DF808FB00BF4DF808ED2A
:1051A000FFF7C4FF34BF012000205DF808FB00BFFB
:1051B0004FEA410C7FEA6C5C02D150EA013C0AD113
:1051C0004FEA430C7FEA6C5C02D152EA033C02D105
:1051D0004FF0000070474FF0010070470A22002195
:1051E00000F0F4BC024B0A460146186800F002B811
:1051F000D801042010B502FB01F100F07BF8044651
:10520000E8B150F8042C22F00302043A242A1FD8F3
:10521000132A16D900231B2AC0E900331DD9242ADA
:10522000C0E9023308BFC0E904334FF0000314BFE4
:1052300000F1100200F11802C2E900339360204629
:1052400010BD024600232046C2E90033936010BD22
:10525000002100F0E1FA204610BD00F10802F1E75C
:10526000014B1868704700BFD801042008B5002121
:10527000044601F041FF044B1868C36B03B1984723
:10528000204604F093FC00BFE0B1000070B50D4E65
:105290000D4D761BB61006D00024013455F8043BA2
:1052A0009847A642F9D1094E094D04F0DBFE761B62
:1052B000B61006D00024013455F8043B9847A642A6
:1052C000F9D170BD940B0420940B04209C0B042096
:1052D000940B0420024B0146186800F00BB800BF85
:1052E000D8010420024B0146186802F093BF00BFAA
:1052F000D80104202DE9F04F01F10B05162D83B0E4
:10530000064623D8102900F2B68000F0CFFA102507
:1053100018230220CC4F3B445C68A3F1080294425E
:1053200000F056816368E16823F0030323445A6860
:10533000A56842F00102E96030468D605A6000F0D5
:10534000BBFA0834204603B0BDE8F08F35F00705FE
:1053500000F19180A94200F28E8000F0A7FAB5F525
:10536000FC7FC0F064816B0A00F08C80042B00F29B
:105370003681AB0903F1390003F1380CC100B24F9B
:1053800039444C680839A14206D10CE0002A80F269
:105390001B81E468A14206D0636823F003035A1B13
:1053A0000F2AF3DD60463C69DFF8B0C264456FD078
:1053B000636823F003035A1B0F2A00F32681002A97
:1053C000C7E904CC80F21781B3F5007F80F05981E2
:1053D0000122DB08991013448A40796857F833E0BA
:1053E00007EBC3080A43A8F10801C4E902E17A60A7
:1053F00047F83340CEF80C40012483109C4094427F
:105400004CD8144206D120F003006400144200F18D
:105410000400FAD007EBC009CE468046DEF80C3017
:105420009E4507D107E1002A80F21C81DB689E457A
:1054300000F00181596821F003014A1B0F2AF2DDB7
:1054400045F001083046D3E902E41D4442F001066C
:10545000C3F80480CEF80C40C4F808E0C7E904554E
:10546000C5E902CC6E605A50019300F025FA019B09
:1054700003F1080466E700240C232046336003B0E0
:10548000BDE8F08F4FF4007140204FF03F0C76E7FD
:1054900001247A6883109C409442B2D9BC68636846
:1054A00023F00309A94503D3A9EB05030F2B7BDCEC
:1054B000664BDFF8ACA11A68DAF8003005EB020899
:1054C000013300F03A8108F5805808F10F0828F4FC
:1054D0007F6828F00F084146304600F0F3F9B0F13C
:1054E000FF3F834600F0F68004EB0900584500F2C8
:1054F000EF80574A13684344136000F03F81DAF8A5
:10550000001001311BBFABEB00001B18CAF800B044
:1055100013601BF0070300F02681C3F10801C3F5F7
:1055200080538B440833D844C8F30B08A3EB080816
:1055300041463046019200F0C5F9431C019A00F043
:105540003881A0EB0B01414441F001011368BC42DA
:105550004344C7F808B01360CBF8041015D0B9F174
:105560000F0F40F222814FF0050E6168A9F10C0087
:1055700020F0070001F00101014304EB000C0F28AB
:105580006160CCE901EE00F22C81324A32481168A8
:10559000BC688B42016888BF136062688B4222F04E
:1055A000030288BF036099E045F0010243F0010364
:1055B000254462603046BD6008346B6000F07CF9C1
:1055C000204603B0BDE8F08F23445A68E168AFE697
:1055D000DC68A34208BF02303FF4E5AEA2E6142B1C
:1055E00070D9542B00F2AC802B0B03F16F0003F148
:1055F0006E0CC100C3E623445A68304642F00102F3
:105600005A60083400F058F99CE645F0010E42F06B
:1056100001012544C4F804E03046C7E90455C5E952
:1056200002CC6960E25000F047F908348AE6E808E5
:1056300005F108036EE608F1010818F0030F0EF1FA
:10564000080E7FF4EBAE60E0080604206415042029
:10565000341504205C150420601504201006042075
:10566000100A04201C4619444A68DB6854F8085F95
:1056700042F001024A603046EB609D6000F01CF988
:1056800060E65A0A042A35D9142A6FD802F15C015F
:10569000C9005B3207EB010E7958AEF1080E8E455A
:1056A00058D04A6822F003029A4202D989688E458E
:1056B000F7D1D1F80CE07A68C4E9021ECEF80840B0
:1056C000CC6099E603F15C0003F15B0CC10056E687
:1056D000BC4272D0BC68626822F003029542A2EB21
:1056E000050302D80F2B3FF75FAF304600F0E4F818
:1056F000002427E69A0902F13901C9003832C9E7C6
:10570000D9F80090994540F0838010F0030FA9F17B
:10571000080300F1FF30F3D17B6823EA04037B60C8
:1057200064009C423FF6BAAE1CB9B7E6640008F1CB
:1057300004081C42FAD040466CE608F11008CAE69C
:10574000B3F5AA7F26D8EB0B03F1780003F1770CB1
:10575000C10014E64FF001087B68921008FA02F2CB
:105760001A437A60A8E74FF48053DCE6542A29D81C
:105770001A0B02F16F01C9006E328BE7C0F30B0107
:1057800000297FF4BCAE09EB0802B96842F00102BF
:105790004A60FAE640F2545293421CD8AB0C03F133
:1057A0007D0003F17C0CC100E9E50123CBF8043056
:1057B0009BE701214FF00008C8E6164A13684344EE
:1057C00013609CE6B2F5AA7F14D8DA0B02F17801D7
:1057D000C90077325EE74FF47E717F204FF07E0C78
:1057E000CDE504F108013046019202F013FD019A63
:1057F0001368CAE640F254518A4205D89A0C02F165
:105800007D01C9007C3245E74FF47E717E2241E77D
:105810007B6885E734150420F0B4860743D0541E16
:10582000002A3ED0CAB2034602E014F1FF3438D356
:1058300003F8012B9D07F8D1032C2BD9CDB245EAF3
:1058400005250F2C45EA054516D9A4F110073F0997
:1058500003F1200606EB071603F1100242E9045596
:1058600042E902551032B242F8D104F00F04013778
:10587000032C03EB07130DD91E462246043A032AD4
:1058800046F8045BFAD8221F22F0030204321344C4
:1058900004F003042CB1C9B21C4403F8011B9C4260
:1058A000FBD1F0BC704714460346C5E7014802F03F
:1058B000BBBD00BF14190420014802F0B7BD00BFF2
:1058C0001419042038B50023064C05460846236009
:1058D00003F082FF431C00D038BD2368002BFBD0AF
:1058E0002B6038BD281904200EB4034630B56FF084
:1058F00000449CB01FA951F8042B0A480A4D02939A
:10590000069301910B46006802A90794CDE904456E
:1059100000F072F90022029B1A701CB0BDE8304002
:1059200003B07047D80104200802FFFFC9B200F09D
:105930000303002943D07BB10378002B67D0994241
:105940003CD0431C05E013F8012B002A5DD08A42AD
:1059500034D09A071846F6D170B4046841EA01269B
:1059600046EA064686EA0405A5F10133A4F10132B0
:1059700023EA050322EA0402134313F0803F0FD108
:1059800050F8044F84EA0605A5F10132A4F1013371
:1059900022EA050223EA0403134313F0803FEFD009
:1059A000037843B1994202D106E08B4204D010F84B
:1059B000013F002BF9D1184670BC704770475BB1AE
:1059C0000378002BFAD0431C03E002780133002A4D
:1059D000F4D099071846F8D10268A2F1013323EAFE
:1059E000020313F0803F08D150F8042FA2F10133D5
:1059F00023EA020313F0803FF6D00378002BDDD0BA
:105A000010F8013F002BFBD1704710467047184635
:105A1000704700BF002A3FD040EA010313F00303A0
:105A2000F0B425D1032A23D904680D68AC421FD1F4
:105A3000043A33D0A4F1013525EA040414F0803F80
:105A40002FD1071D0D1D0DE057F8043B0E68A3F183
:105A50000134B34224EA03040AD1043A1ED014F0FC
:105A6000803F1BD1032A2946384605F10405EBD8AF
:105A700003780C78013A9C420BD17AB114B90DE04D
:105A800062B173B110F8013F11F8014F013AA3421E
:105A9000F6D0181BF0BC7047104670470020F0BCD1
:105AA00070471846F6E700BF2DE9F84F0E468046CE
:105AB000174699460D4600E025462C460A9814F8EC
:105AC00001BB02F09BFC5844417811F00801F3D16E
:105AD000BBF12D0F57D0BBF12B0F04BF95F801B0D0
:105AE000AC1CB9F1000F04D0B9F1100F50D0CC4666
:105AF00005E0BBF1300F55D04FF00A09CC46002924
:105B00000CBF6FF0004E4FF0004E0025BEFBFCF3C3
:105B100028460CFB13EA05E029D001250CFB0020E8
